:1000000010C017C017C015C014C013C012C011C053
:1000100010C00FC00EC00DC00CC00BC00AC009C07C
:1000200008C011241FBECFE5D2E0DEBFCDBF26D071
:100030003AC0E6CF1F920F920FB60F9211248F9302
:100040009F93B09908C09BB381E089278BBB9BB37A
:1000500082E089278BBBB09904C09BB384E08927D9
:100060008BBB87E99AE30197F1F700C000009F91ED
:100070008F910F900FBE0F901F901895B998B89858
:1000800018BAD09AD898D19AD998D29ADA981BBA35
:100090008BB780628BBF80B5826080BD80B5816088
:0A00A00080BD7894FFCFF894FFCFE5
:00000001FF
