:1000000010C017C017C015C014C013C012C011C053
:1000100010C00FC00EC00DC00CC00BC00AC009C07C
:1000200008C011241FBECFE5D2E0DEBFCDBF2CD06B
:1000300067C0E6CF1F920F920FB60F9211248F93D5
:100040009F93B0990EC09BB381E089278BBB9BB374
:1000500082E089278BBB87E99AE30197F1F700C01B
:100060000000B1990AC09BB384E089278BBB87E964
:100070009AE30197F1F700C000009F918F910F90D4
:100080000FBE0F901F90189587B38C7F87BB88B3E6
:10009000836088BB8AB387608ABB8BB385608BBB68
:1000A00082B3836082BB8BB780618BBF789421E081
:1000B00032E094E0B09915C08BB382278BBBEFE29E
:1000C000F5E73197F1F700C000008BB383278BBBB6
:1000D000FFE749EA53E0F15040405040E1F700C0EB
:1000E0000000B199E7CF8BB389278BBB8FE7E9EA93
:1000F000F3E08150E040F040E1F700C00000DACFCB
:04010000F894FFCFA1
:00000001FF
