:100000000EC01DC01DC01BC01AC044C018C017C000
:1000100016C015C014C013C012C011C010C01124E6
:100020001FBECFE5D1E0DEBFCDBF20E0A0E6B0E04F
:1000300001C01D92A336B207E1F761D0BAC0E0CF8C
:100040001F920F920FB60F9211248F939F93B39923
:100050000EC098B384E0892788BB98B382E08927D3
:1000600088BB87E99AE30197F1F700C00000B499D3
:100070000AC098B381E0892788BB87E99AE3019792
:10008000F1F700C000009F918F910F900FBE0F906D
:100090001F9018951F920F920FB60F9211248F93F5
:1000A0009F93809161008F5F8093610080916200D7
:1000B0008130F1F4809161008330D0F08091600054
:1000C000813009F4C09A80916000823009F4C098B0
:1000D00080916000833041F498B384E0892788BB25
:1000E00098B382E0892788BB10926200109260006A
:1000F0009F918F910F900FBE0F901F90189587B30F
:10010000877C87BB88B3886388BB87B3876087BBDE
:1001100088B3856088BB83B7856083BF89B78260F9
:1001200089BF12BE789494E022E031E041E0B399B7
:1001300015C088B3892788BBEFE2F5E73197F1F75F
:1001400000C0000088B3822788BBFFE759EA63E05C
:10015000F15050406040E1F700C00000B4990CC07D
:1001600088B3832788BB8FE7E9EAF3E08150E0405A
:10017000F040E1F700C00000B599D9CF809162004E
:1001800081110BC040936200109261008091620067
:10019000813069F6B59BFACFCACF809160008F5F3E
:1001A0008093600080916200813009F6B59BFACFA0
:0601B000BECFF894FFCF62
:00000001FF
