:1000000012C019C018C017C016C015C014C013C044
:1000100012C011C010C00FC00EC00DC00CC00BC06C
:100020000AC009C008C011241FBECFE5D4E0DEBF5E
:10003000CDBF26D03AC0E4CF1F920F920FB60F92D9
:1000400011248F939F93839908C095B381E08927EA
:1000500085BB95B382E0892785BB839904C095B39E
:1000600084E0892785BB87E99AE30197F1F700C00F
:1000700000009F918F910F900FBE0F901F901895C9
:100080008A98929A8B98939AA09AA898A19AA998DC
:10009000A29AAA988FB780688FBF8BB780648BBFF6
:0E00A00085B7826085BF7894FFCFF894FFCFBC
:00000001FF
